{
  "_format": "hh-sol-artifact-1",
  "contractName": "Medexa",
  "sourceName": "contracts/Medamex.sol",
  "abi": [
    {
      "inputs": [],
      "stateMutability": "nonpayable",
      "type": "constructor"
    },
    {
      "anonymous": false,
      "inputs": [
        {
          "indexed": true,
          "internalType": "address",
          "name": "hospital",
          "type": "address"
        },
        {
          "indexed": false,
          "internalType": "string",
          "name": "name",
          "type": "string"
        },
        {
          "indexed": false,
          "internalType": "string",
          "name": "physicalAddress",
          "type": "string"
        },
        {
          "indexed": false,
          "internalType": "string",
          "name": "mapLink",
          "type": "string"
        }
      ],
      "name": "HospitalRegistered",
      "type": "event"
    },
    {
      "anonymous": false,
      "inputs": [
        {
          "indexed": true,
          "internalType": "address",
          "name": "hospital",
          "type": "address"
        }
      ],
      "name": "HospitalRevoked",
      "type": "event"
    },
    {
      "anonymous": false,
      "inputs": [
        {
          "indexed": true,
          "internalType": "address",
          "name": "patient",
          "type": "address"
        },
        {
          "indexed": false,
          "internalType": "string",
          "name": "newCID",
          "type": "string"
        }
      ],
      "name": "PatientCIDUpdated",
      "type": "event"
    },
    {
      "anonymous": false,
      "inputs": [
        {
          "indexed": true,
          "internalType": "address",
          "name": "patient",
          "type": "address"
        },
        {
          "indexed": false,
          "internalType": "bool",
          "name": "isRegistered",
          "type": "bool"
        },
        {
          "indexed": false,
          "internalType": "string",
          "name": "folderCID",
          "type": "string"
        }
      ],
      "name": "PatientRegistered",
      "type": "event"
    },
    {
      "anonymous": false,
      "inputs": [
        {
          "indexed": true,
          "internalType": "address",
          "name": "patient",
          "type": "address"
        }
      ],
      "name": "PatientUnregistered",
      "type": "event"
    },
    {
      "inputs": [
        {
          "internalType": "address",
          "name": "",
          "type": "address"
        }
      ],
      "name": "admins",
      "outputs": [
        {
          "internalType": "bool",
          "name": "",
          "type": "bool"
        }
      ],
      "stateMutability": "view",
      "type": "function"
    },
    {
      "inputs": [
        {
          "internalType": "address",
          "name": "_hospital",
          "type": "address"
        }
      ],
      "name": "getHospitalDetails",
      "outputs": [
        {
          "internalType": "bool",
          "name": "isRegistered",
          "type": "bool"
        },
        {
          "internalType": "string",
          "name": "name",
          "type": "string"
        },
        {
          "internalType": "string",
          "name": "physicalAddress",
          "type": "string"
        },
        {
          "internalType": "string",
          "name": "mapLink",
          "type": "string"
        }
      ],
      "stateMutability": "view",
      "type": "function"
    },
    {
      "inputs": [
        {
          "internalType": "address",
          "name": "_patient",
          "type": "address"
        }
      ],
      "name": "getPatientCID",
      "outputs": [
        {
          "internalType": "string",
          "name": "",
          "type": "string"
        }
      ],
      "stateMutability": "view",
      "type": "function"
    },
    {
      "inputs": [
        {
          "internalType": "address",
          "name": "_address",
          "type": "address"
        }
      ],
      "name": "isAdmin",
      "outputs": [
        {
          "internalType": "bool",
          "name": "",
          "type": "bool"
        }
      ],
      "stateMutability": "view",
      "type": "function"
    },
    {
      "inputs": [
        {
          "internalType": "address",
          "name": "_patient",
          "type": "address"
        }
      ],
      "name": "isPatientRegistered",
      "outputs": [
        {
          "internalType": "bool",
          "name": "",
          "type": "bool"
        }
      ],
      "stateMutability": "view",
      "type": "function"
    },
    {
      "inputs": [
        {
          "internalType": "address",
          "name": "_hospital",
          "type": "address"
        }
      ],
      "name": "isRegisteredHospital",
      "outputs": [
        {
          "internalType": "bool",
          "name": "",
          "type": "bool"
        }
      ],
      "stateMutability": "view",
      "type": "function"
    },
    {
      "inputs": [],
      "name": "patientCount",
      "outputs": [
        {
          "internalType": "uint256",
          "name": "",
          "type": "uint256"
        }
      ],
      "stateMutability": "view",
      "type": "function"
    },
    {
      "inputs": [
        {
          "internalType": "address",
          "name": "",
          "type": "address"
        }
      ],
      "name": "patientFolderCID",
      "outputs": [
        {
          "internalType": "string",
          "name": "",
          "type": "string"
        }
      ],
      "stateMutability": "view",
      "type": "function"
    },
    {
      "inputs": [
        {
          "internalType": "address",
          "name": "_hospital",
          "type": "address"
        },
        {
          "internalType": "string",
          "name": "_name",
          "type": "string"
        },
        {
          "internalType": "string",
          "name": "_physicalAddress",
          "type": "string"
        },
        {
          "internalType": "string",
          "name": "_mapLink",
          "type": "string"
        }
      ],
      "name": "registerHospital",
      "outputs": [],
      "stateMutability": "nonpayable",
      "type": "function"
    },
    {
      "inputs": [
        {
          "internalType": "address",
          "name": "_patient",
          "type": "address"
        }
      ],
      "name": "registerPatient",
      "outputs": [],
      "stateMutability": "nonpayable",
      "type": "function"
    },
    {
      "inputs": [
        {
          "internalType": "address",
          "name": "",
          "type": "address"
        }
      ],
      "name": "registeredHospitals",
      "outputs": [
        {
          "internalType": "bool",
          "name": "isRegistered",
          "type": "bool"
        },
        {
          "internalType": "string",
          "name": "name",
          "type": "string"
        },
        {
          "internalType": "string",
          "name": "physicalAddress",
          "type": "string"
        },
        {
          "internalType": "string",
          "name": "mapLink",
          "type": "string"
        }
      ],
      "stateMutability": "view",
      "type": "function"
    },
    {
      "inputs": [
        {
          "internalType": "address",
          "name": "",
          "type": "address"
        }
      ],
      "name": "registeredPatients",
      "outputs": [
        {
          "internalType": "bool",
          "name": "",
          "type": "bool"
        }
      ],
      "stateMutability": "view",
      "type": "function"
    },
    {
      "inputs": [
        {
          "internalType": "address",
          "name": "_hospital",
          "type": "address"
        }
      ],
      "name": "revokeHospital",
      "outputs": [],
      "stateMutability": "nonpayable",
      "type": "function"
    },
    {
      "inputs": [
        {
          "internalType": "address",
          "name": "_patient",
          "type": "address"
        }
      ],
      "name": "unregisterPatient",
      "outputs": [],
      "stateMutability": "nonpayable",
      "type": "function"
    },
    {
      "inputs": [
        {
          "internalType": "address",
          "name": "_patient",
          "type": "address"
        },
        {
          "internalType": "string",
          "name": "_newCID",
          "type": "string"
        }
      ],
      "name": "updatePatientCID",
      "outputs": [],
      "stateMutability": "nonpayable",
      "type": "function"
    }
  ],
  "bytecode": "0x6080604052348015600f57600080fd5b506001600360003373ffffffffffffffffffffffffffffffffffffffff1673ffffffffffffffffffffffffffffffffffffffff16815260200190815260200160002060006101000a81548160ff021916908315150217905550612431806100776000396000f3fe608060405234801561001057600080fd5b50600436106100f55760003560e01c8063429b62e5116100975780639cdaaad8116100665780639cdaaad8146102d4578063a0303c4114610304578063c3856ebe14610322578063efd126671461033e576100f5565b8063429b62e51461021457806353f17fd4146102445780636bd9110e1461027457806380b6b1b8146102a4576100f5565b806320b6559f116100d357806320b6559f1461016557806324d7806c1461018157806326fc9787146101b157806338cb99ff146101e4576100f5565b80630bb307a8146100fa5780631388c5191461012d5780631def195b14610149575b600080fd5b610114600480360381019061010f9190611888565b61035a565b6040516101249493929190611960565b60405180910390f35b61014760048036038101906101429190611888565b6105e8565b005b610163600480360381019061015e9190611888565b6108ed565b005b61017f600480360381019061017a9190611aef565b610b10565b005b61019b60048036038101906101969190611888565b610d4c565b6040516101a89190611baa565b60405180910390f35b6101cb60048036038101906101c69190611888565b610da2565b6040516101db9493929190611960565b60405180910390f35b6101fe60048036038101906101f99190611888565b610f77565b60405161020b9190611baa565b60405180910390f35b61022e60048036038101906102299190611888565b610fd0565b60405161023b9190611baa565b60405180910390f35b61025e60048036038101906102599190611888565b610ff0565b60405161026b9190611bc5565b60405180910390f35b61028e60048036038101906102899190611888565b611090565b60405161029b9190611bc5565b60405180910390f35b6102be60048036038101906102b99190611888565b611322565b6040516102cb9190611baa565b60405180910390f35b6102ee60048036038101906102e99190611888565b611377565b6040516102fb9190611baa565b60405180910390f35b61030c611397565b6040516103199190611c00565b60405180910390f35b61033c60048036038101906103379190611c1b565b61139d565b005b61035860048036038101906103539190611888565b6115fd565b005b600060608060606000600260008773ffffffffffffffffffffffffffffffffffffffff1673ffffffffffffffffffffffffffffffffffffffff1681526020019081526020016000206040518060800160405290816000820160009054906101000a900460ff161515151581526020016001820180546103d890611ca6565b80601f016020809104026020016040519081016040528092919081815260200182805461040490611ca6565b80156104515780601f1061042657610100808354040283529160200191610451565b820191906000526020600020905b81548152906001019060200180831161043457829003601f168201915b5050505050815260200160028201805461046a90611ca6565b80601f016020809104026020016040519081016040528092919081815260200182805461049690611ca6565b80156104e35780601f106104b8576101008083540402835291602001916104e3565b820191906000526020600020905b8154815290600101906020018083116104c657829003601f168201915b505050505081526020016003820180546104fc90611ca6565b80601f016020809104026020016040519081016040528092919081815260200182805461052890611ca6565b80156105755780601f1061054a57610100808354040283529160200191610575565b820191906000526020600020905b81548152906001019060200180831161055857829003601f168201915b505050505081525050905080600001516105c4576040517f08c379a00000000000000000000000000000000000000000000000000000000081526004016105bb90611d23565b60405180910390fd5b80600001518160200151826040015183606001519450945094509450509193509193565b600360003373ffffffffffffffffffffffffffffffffffffffff1673ffffffffffffffffffffffffffffffffffffffff16815260200190815260200160002060009054906101000a900460ff168061068c5750600260003373ffffffffffffffffffffffffffffffffffffffff1673ffffffffffffffffffffffffffffffffffffffff16815260200190815260200160002060000160009054906101000a900460ff165b806106df57506000803373ffffffffffffffffffffffffffffffffffffffff1673ffffffffffffffffffffffffffffffffffffffff16815260200190815260200160002060009054906101000a900460ff165b61071e576040517f08c379a000000000000000000000000000000000000000000000000000000000815260040161071590611ddb565b60405180910390fd5b6000808273ffffffffffffffffffffffffffffffffffffffff1673ffffffffffffffffffffffffffffffffffffffff16815260200190815260200160002060009054906101000a900460ff16156107aa576040517f08c379a00000000000000000000000000000000000000000000000000000000081526004016107a190611e47565b60405180910390fd5b60016000808373ffffffffffffffffffffffffffffffffffffffff1673ffffffffffffffffffffffffffffffffffffffff16815260200190815260200160002060006101000a81548160ff0219169083151502179055506040518060400160405280600781526020017f70656e64696e6700000000000000000000000000000000000000000000000000815250600160008373ffffffffffffffffffffffffffffffffffffffff1673ffffffffffffffffffffffffffffffffffffffff16815260200190815260200160002090816108829190612013565b506004600081548092919061089690612114565b91905055508073ffffffffffffffffffffffffffffffffffffffff167fef63fe82891cb41cb75263a07b7c95dd17c208c197557dfe366c3762db1b0a5060016040516108e291906121a8565b60405180910390a250565b600360003373ffffffffffffffffffffffffffffffffffffffff1673ffffffffffffffffffffffffffffffffffffffff16815260200190815260200160002060009054906101000a900460ff16610979576040517f08c379a000000000000000000000000000000000000000000000000000000000815260040161097090612222565b60405180910390fd5b6000808273ffffffffffffffffffffffffffffffffffffffff1673ffffffffffffffffffffffffffffffffffffffff16815260200190815260200160002060009054906101000a900460ff16610a04576040517f08c379a00000000000000000000000000000000000000000000000000000000081526004016109fb9061228e565b60405180910390fd5b60008060008373ffffffffffffffffffffffffffffffffffffffff1673ffffffffffffffffffffffffffffffffffffffff16815260200190815260200160002060006101000a81548160ff021916908315150217905550600160008273ffffffffffffffffffffffffffffffffffffffff1673ffffffffffffffffffffffffffffffffffffffff1681526020019081526020016000206000610aa691906117b9565b60006004541115610aca5760046000815480929190610ac4906122ae565b91905055505b8073ffffffffffffffffffffffffffffffffffffffff167f321dfd8e9fec8b04dac67b77a1e25aa68539e4d7a212a25a0f8b9960ce429c4960405160405180910390a250565b600360003373ffffffffffffffffffffffffffffffffffffffff1673ffffffffffffffffffffffffffffffffffffffff16815260200190815260200160002060009054906101000a900460ff16610b9c576040517f08c379a0000000000000000000000000000000000000000000000000000000008152600401610b9390612222565b60405180910390fd5b600260008573ffffffffffffffffffffffffffffffffffffffff1673ffffffffffffffffffffffffffffffffffffffff16815260200190815260200160002060000160009054906101000a900460ff1615610c2c576040517f08c379a0000000000000000000000000000000000000000000000000000000008152600401610c2390612323565b60405180910390fd5b604051806080016040528060011515815260200184815260200183815260200182815250600260008673ffffffffffffffffffffffffffffffffffffffff1673ffffffffffffffffffffffffffffffffffffffff16815260200190815260200160002060008201518160000160006101000a81548160ff0219169083151502179055506020820151816001019081610cc49190612013565b506040820151816002019081610cda9190612013565b506060820151816003019081610cf09190612013565b509050508373ffffffffffffffffffffffffffffffffffffffff167fd6d67183fa15dc4bba9279bc1f98b35002001823c5861e7b186e726e2403263d848484604051610d3e93929190612343565b60405180910390a250505050565b6000600360008373ffffffffffffffffffffffffffffffffffffffff1673ffffffffffffffffffffffffffffffffffffffff16815260200190815260200160002060009054906101000a900460ff169050919050565b60026020528060005260406000206000915090508060000160009054906101000a900460ff1690806001018054610dd890611ca6565b80601f0160208091040260200160405190810160405280929190818152602001828054610e0490611ca6565b8015610e515780601f10610e2657610100808354040283529160200191610e51565b820191906000526020600020905b815481529060010190602001808311610e3457829003601f168201915b505050505090806002018054610e6690611ca6565b80601f0160208091040260200160405190810160405280929190818152602001828054610e9290611ca6565b8015610edf5780601f10610eb457610100808354040283529160200191610edf565b820191906000526020600020905b815481529060010190602001808311610ec257829003601f168201915b505050505090806003018054610ef490611ca6565b80601f0160208091040260200160405190810160405280929190818152602001828054610f2090611ca6565b8015610f6d5780601f10610f4257610100808354040283529160200191610f6d565b820191906000526020600020905b815481529060010190602001808311610f5057829003601f168201915b5050505050905084565b6000600260008373ffffffffffffffffffffffffffffffffffffffff1673ffffffffffffffffffffffffffffffffffffffff16815260200190815260200160002060000160009054906101000a900460ff169050919050565b60036020528060005260406000206000915054906101000a900460ff1681565b6001602052806000526040600020600091509050805461100f90611ca6565b80601f016020809104026020016040519081016040528092919081815260200182805461103b90611ca6565b80156110885780601f1061105d57610100808354040283529160200191611088565b820191906000526020600020905b81548152906001019060200180831161106b57829003601f168201915b505050505081565b6060600360003373ffffffffffffffffffffffffffffffffffffffff1673ffffffffffffffffffffffffffffffffffffffff16815260200190815260200160002060009054906101000a900460ff16806111365750600260003373ffffffffffffffffffffffffffffffffffffffff1673ffffffffffffffffffffffffffffffffffffffff16815260200190815260200160002060000160009054906101000a900460ff165b8061118957506000803373ffffffffffffffffffffffffffffffffffffffff1673ffffffffffffffffffffffffffffffffffffffff16815260200190815260200160002060009054906101000a900460ff165b6111c8576040517f08c379a00000000000000000000000000000000000000000000000000000000081526004016111bf90611ddb565b60405180910390fd5b6000808373ffffffffffffffffffffffffffffffffffffffff1673ffffffffffffffffffffffffffffffffffffffff16815260200190815260200160002060009054906101000a900460ff16611253576040517f08c379a000000000000000000000000000000000000000000000000000000000815260040161124a9061228e565b60405180910390fd5b600160008373ffffffffffffffffffffffffffffffffffffffff1673ffffffffffffffffffffffffffffffffffffffff168152602001908152602001600020805461129d90611ca6565b80601f01602080910402602001604051908101604052809291908181526020018280546112c990611ca6565b80156113165780601f106112eb57610100808354040283529160200191611316565b820191906000526020600020905b8154815290600101906020018083116112f957829003601f168201915b50505050509050919050565b60008060008373ffffffffffffffffffffffffffffffffffffffff1673ffffffffffffffffffffffffffffffffffffffff16815260200190815260200160002060009054906101000a900460ff169050919050565b60006020528060005260406000206000915054906101000a900460ff1681565b60045481565b600360003373ffffffffffffffffffffffffffffffffffffffff1673ffffffffffffffffffffffffffffffffffffffff16815260200190815260200160002060009054906101000a900460ff16806114415750600260003373ffffffffffffffffffffffffffffffffffffffff1673ffffffffffffffffffffffffffffffffffffffff16815260200190815260200160002060000160009054906101000a900460ff165b8061149457506000803373ffffffffffffffffffffffffffffffffffffffff1673ffffffffffffffffffffffffffffffffffffffff16815260200190815260200160002060009054906101000a900460ff165b6114d3576040517f08c379a00000000000000000000000000000000000000000000000000000000081526004016114ca90611ddb565b60405180910390fd5b6000808373ffffffffffffffffffffffffffffffffffffffff1673ffffffffffffffffffffffffffffffffffffffff16815260200190815260200160002060009054906101000a900460ff1661155e576040517f08c379a0000000000000000000000000000000000000000000000000000000008152600401611555906123db565b60405180910390fd5b80600160008473ffffffffffffffffffffffffffffffffffffffff1673ffffffffffffffffffffffffffffffffffffffff16815260200190815260200160002090816115aa9190612013565b508173ffffffffffffffffffffffffffffffffffffffff167f6f77d04db43bd44d76ba912249773363c5c25792097ed5bd3e044f117ae496e7826040516115f19190611bc5565b60405180910390a25050565b600360003373ffffffffffffffffffffffffffffffffffffffff1673ffffffffffffffffffffffffffffffffffffffff16815260200190815260200160002060009054906101000a900460ff16611689576040517f08c379a000000000000000000000000000000000000000000000000000000000815260040161168090612222565b60405180910390fd5b600260008273ffffffffffffffffffffffffffffffffffffffff1673ffffffffffffffffffffffffffffffffffffffff16815260200190815260200160002060000160009054906101000a900460ff16611718576040517f08c379a000000000000000000000000000000000000000000000000000000000815260040161170f90611d23565b60405180910390fd5b6000600260008373ffffffffffffffffffffffffffffffffffffffff1673ffffffffffffffffffffffffffffffffffffffff16815260200190815260200160002060000160006101000a81548160ff0219169083151502179055508073ffffffffffffffffffffffffffffffffffffffff167f04caadd35ed8bd43e7fa429ca71999b16e52790034b91f5ca6fff95abc5449e860405160405180910390a250565b5080546117c590611ca6565b6000825580601f106117d757506117f6565b601f0160209004906000526020600020908101906117f591906117f9565b5b50565b5b808211156118125760008160009055506001016117fa565b5090565b6000604051905090565b600080fd5b600080fd5b600073ffffffffffffffffffffffffffffffffffffffff82169050919050565b60006118558261182a565b9050919050565b6118658161184a565b811461187057600080fd5b50565b6000813590506118828161185c565b92915050565b60006020828403121561189e5761189d611820565b5b60006118ac84828501611873565b91505092915050565b60008115159050919050565b6118ca816118b5565b82525050565b600081519050919050565b600082825260208201905092915050565b60005b8381101561190a5780820151818401526020810190506118ef565b60008484015250505050565b6000601f19601f8301169050919050565b6000611932826118d0565b61193c81856118db565b935061194c8185602086016118ec565b61195581611916565b840191505092915050565b600060808201905061197560008301876118c1565b81810360208301526119878186611927565b9050818103604083015261199b8185611927565b905081810360608301526119af8184611927565b905095945050505050565b600080fd5b600080fd5b7f4e487b7100000000000000000000000000000000000000000000000000000000600052604160045260246000fd5b6119fc82611916565b810181811067ffffffffffffffff82111715611a1b57611a1a6119c4565b5b80604052505050565b6000611a2e611816565b9050611a3a82826119f3565b919050565b600067ffffffffffffffff821115611a5a57611a596119c4565b5b611a6382611916565b9050602081019050919050565b82818337600083830152505050565b6000611a92611a8d84611a3f565b611a24565b905082815260208101848484011115611aae57611aad6119bf565b5b611ab9848285611a70565b509392505050565b600082601f830112611ad657611ad56119ba565b5b8135611ae6848260208601611a7f565b91505092915050565b60008060008060808587031215611b0957611b08611820565b5b6000611b1787828801611873565b945050602085013567ffffffffffffffff811115611b3857611b37611825565b5b611b4487828801611ac1565b935050604085013567ffffffffffffffff811115611b6557611b64611825565b5b611b7187828801611ac1565b925050606085013567ffffffffffffffff811115611b9257611b91611825565b5b611b9e87828801611ac1565b91505092959194509250565b6000602082019050611bbf60008301846118c1565b92915050565b60006020820190508181036000830152611bdf8184611927565b905092915050565b6000819050919050565b611bfa81611be7565b82525050565b6000602082019050611c156000830184611bf1565b92915050565b60008060408385031215611c3257611c31611820565b5b6000611c4085828601611873565b925050602083013567ffffffffffffffff811115611c6157611c60611825565b5b611c6d85828601611ac1565b9150509250929050565b7f4e487b7100000000000000000000000000000000000000000000000000000000600052602260045260246000fd5b60006002820490506001821680611cbe57607f821691505b602082108103611cd157611cd0611c77565b5b50919050565b7f486f73706974616c206973206e6f742072656769737465726564000000000000600082015250565b6000611d0d601a836118db565b9150611d1882611cd7565b602082019050919050565b60006020820190508181036000830152611d3c81611d00565b9050919050565b7f4163636573732044656e6965643a204f6e6c792041646d696e2c20526567697360008201527f746572656420486f73706974616c2c206f72205265676973746572656420506160208201527f7469656e74000000000000000000000000000000000000000000000000000000604082015250565b6000611dc56045836118db565b9150611dd082611d43565b606082019050919050565b60006020820190508181036000830152611df481611db8565b9050919050565b7f50617469656e7420697320616c72656164792072656769737465726564000000600082015250565b6000611e31601d836118db565b9150611e3c82611dfb565b602082019050919050565b60006020820190508181036000830152611e6081611e24565b9050919050565b60008190508160005260206000209050919050565b60006020601f8301049050919050565b600082821b905092915050565b600060088302611ec97fffffffffffffffffffffffffffffffffffffffffffffffffffffffffffffffff82611e8c565b611ed38683611e8c565b95508019841693508086168417925050509392505050565b6000819050919050565b6000611f10611f0b611f0684611be7565b611eeb565b611be7565b9050919050565b6000819050919050565b611f2a83611ef5565b611f3e611f3682611f17565b848454611e99565b825550505050565b600090565b611f53611f46565b611f5e818484611f21565b505050565b5b81811015611f8257611f77600082611f4b565b600181019050611f64565b5050565b601f821115611fc757611f9881611e67565b611fa184611e7c565b81016020851015611fb0578190505b611fc4611fbc85611e7c565b830182611f63565b50505b505050565b600082821c905092915050565b6000611fea60001984600802611fcc565b1980831691505092915050565b60006120038383611fd9565b9150826002028217905092915050565b61201c826118d0565b67ffffffffffffffff811115612035576120346119c4565b5b61203f8254611ca6565b61204a828285611f86565b600060209050601f83116001811461207d576000841561206b578287015190505b6120758582611ff7565b8655506120dd565b601f19841661208b86611e67565b60005b828110156120b35784890151825560018201915060208501945060208101905061208e565b868310156120d057848901516120cc601f891682611fd9565b8355505b6001600288020188555050505b505050505050565b7f4e487b7100000000000000000000000000000000000000000000000000000000600052601160045260246000fd5b600061211f82611be7565b91507fffffffffffffffffffffffffffffffffffffffffffffffffffffffffffffffff8203612151576121506120e5565b5b600182019050919050565b7f70656e64696e6700000000000000000000000000000000000000000000000000600082015250565b60006121926007836118db565b915061219d8261215c565b602082019050919050565b60006040820190506121bd60008301846118c1565b81810360208301526121ce81612185565b905092915050565b7f4163636573732044656e6965643a204f6e6c792041646d696e00000000000000600082015250565b600061220c6019836118db565b9150612217826121d6565b602082019050919050565b6000602082019050818103600083015261223b816121ff565b9050919050565b7f50617469656e74206973206e6f74207265676973746572656400000000000000600082015250565b60006122786019836118db565b915061228382612242565b602082019050919050565b600060208201905081810360008301526122a78161226b565b9050919050565b60006122b982611be7565b9150600082036122cc576122cb6120e5565b5b600182039050919050565b7f486f73706974616c20697320616c726561647920726567697374657265640000600082015250565b600061230d601e836118db565b9150612318826122d7565b602082019050919050565b6000602082019050818103600083015261233c81612300565b9050919050565b6000606082019050818103600083015261235d8186611927565b905081810360208301526123718185611927565b905081810360408301526123858184611927565b9050949350505050565b7f50617469656e74206e6f74207265676973746572656400000000000000000000600082015250565b60006123c56016836118db565b91506123d08261238f565b602082019050919050565b600060208201905081810360008301526123f4816123b8565b905091905056fea26469706673582212208c0a5a82e95a7749c6bb64124952b7ff2485dd4c750a86c8af0569530e75e79364736f6c634300081a0033",
  "linkReferences": {},
  "deployedLinkReferences": {}
}